{
  "_format": "hh-sol-artifact-1",
  "contractName": "RateLimitToken",
  "sourceName": "contracts/tokenrate.sol",
  "abi": [
    {
      "inputs": [],
      "stateMutability": "nonpayable",
      "type": "constructor"
    },
    {
      "inputs": [
        {
          "internalType": "address",
          "name": "spender",
          "type": "address"
        },
        {
          "internalType": "uint256",
          "name": "allowance",
          "type": "uint256"
        },
        {
          "internalType": "uint256",
          "name": "needed",
          "type": "uint256"
        }
      ],
      "name": "ERC20InsufficientAllowance",
      "type": "error"
    },
    {
      "inputs": [
        {
          "internalType": "address",
          "name": "sender",
          "type": "address"
        },
        {
          "internalType": "uint256",
          "name": "balance",
          "type": "uint256"
        },
        {
          "internalType": "uint256",
          "name": "needed",
          "type": "uint256"
        }
      ],
      "name": "ERC20InsufficientBalance",
      "type": "error"
    },
    {
      "inputs": [
        {
          "internalType": "address",
          "name": "approver",
          "type": "address"
        }
      ],
      "name": "ERC20InvalidApprover",
      "type": "error"
    },
    {
      "inputs": [
        {
          "internalType": "address",
          "name": "receiver",
          "type": "address"
        }
      ],
      "name": "ERC20InvalidReceiver",
      "type": "error"
    },
    {
      "inputs": [
        {
          "internalType": "address",
          "name": "sender",
          "type": "address"
        }
      ],
      "name": "ERC20InvalidSender",
      "type": "error"
    },
    {
      "inputs": [
        {
          "internalType": "address",
          "name": "spender",
          "type": "address"
        }
      ],
      "name": "ERC20InvalidSpender",
      "type": "error"
    },
    {
      "inputs": [
        {
          "internalType": "address",
          "name": "owner",
          "type": "address"
        }
      ],
      "name": "OwnableInvalidOwner",
      "type": "error"
    },
    {
      "inputs": [
        {
          "internalType": "address",
          "name": "account",
          "type": "address"
        }
      ],
      "name": "OwnableUnauthorizedAccount",
      "type": "error"
    },
    {
      "anonymous": false,
      "inputs": [
        {
          "indexed": true,
          "internalType": "address",
          "name": "owner",
          "type": "address"
        },
        {
          "indexed": true,
          "internalType": "address",
          "name": "spender",
          "type": "address"
        },
        {
          "indexed": false,
          "internalType": "uint256",
          "name": "value",
          "type": "uint256"
        }
      ],
      "name": "Approval",
      "type": "event"
    },
    {
      "anonymous": false,
      "inputs": [
        {
          "indexed": true,
          "internalType": "address",
          "name": "previousOwner",
          "type": "address"
        },
        {
          "indexed": true,
          "internalType": "address",
          "name": "newOwner",
          "type": "address"
        }
      ],
      "name": "OwnershipTransferred",
      "type": "event"
    },
    {
      "anonymous": false,
      "inputs": [
        {
          "indexed": true,
          "internalType": "address",
          "name": "from",
          "type": "address"
        },
        {
          "indexed": true,
          "internalType": "address",
          "name": "to",
          "type": "address"
        },
        {
          "indexed": false,
          "internalType": "uint256",
          "name": "value",
          "type": "uint256"
        }
      ],
      "name": "Transfer",
      "type": "event"
    },
    {
      "inputs": [
        {
          "internalType": "address",
          "name": "owner",
          "type": "address"
        },
        {
          "internalType": "address",
          "name": "spender",
          "type": "address"
        }
      ],
      "name": "allowance",
      "outputs": [
        {
          "internalType": "uint256",
          "name": "",
          "type": "uint256"
        }
      ],
      "stateMutability": "view",
      "type": "function"
    },
    {
      "inputs": [
        {
          "internalType": "address",
          "name": "spender",
          "type": "address"
        },
        {
          "internalType": "uint256",
          "name": "value",
          "type": "uint256"
        }
      ],
      "name": "approve",
      "outputs": [
        {
          "internalType": "bool",
          "name": "",
          "type": "bool"
        }
      ],
      "stateMutability": "nonpayable",
      "type": "function"
    },
    {
      "inputs": [
        {
          "internalType": "address",
          "name": "account",
          "type": "address"
        }
      ],
      "name": "balanceOf",
      "outputs": [
        {
          "internalType": "uint256",
          "name": "",
          "type": "uint256"
        }
      ],
      "stateMutability": "view",
      "type": "function"
    },
    {
      "inputs": [],
      "name": "decimals",
      "outputs": [
        {
          "internalType": "uint8",
          "name": "",
          "type": "uint8"
        }
      ],
      "stateMutability": "view",
      "type": "function"
    },
    {
      "inputs": [
        {
          "internalType": "address",
          "name": "",
          "type": "address"
        }
      ],
      "name": "lastRequestTime",
      "outputs": [
        {
          "internalType": "uint256",
          "name": "",
          "type": "uint256"
        }
      ],
      "stateMutability": "view",
      "type": "function"
    },
    {
      "inputs": [],
      "name": "name",
      "outputs": [
        {
          "internalType": "string",
          "name": "",
          "type": "string"
        }
      ],
      "stateMutability": "view",
      "type": "function"
    },
    {
      "inputs": [],
      "name": "owner",
      "outputs": [
        {
          "internalType": "address",
          "name": "",
          "type": "address"
        }
      ],
      "stateMutability": "view",
      "type": "function"
    },
    {
      "inputs": [],
      "name": "renounceOwnership",
      "outputs": [],
      "stateMutability": "nonpayable",
      "type": "function"
    },
    {
      "inputs": [],
      "name": "requestAccess",
      "outputs": [],
      "stateMutability": "nonpayable",
      "type": "function"
    },
    {
      "inputs": [],
      "name": "requestCost",
      "outputs": [
        {
          "internalType": "uint256",
          "name": "",
          "type": "uint256"
        }
      ],
      "stateMutability": "view",
      "type": "function"
    },
    {
      "inputs": [
        {
          "internalType": "uint256",
          "name": "_cost",
          "type": "uint256"
        }
      ],
      "name": "setRequestCost",
      "outputs": [],
      "stateMutability": "nonpayable",
      "type": "function"
    },
    {
      "inputs": [
        {
          "internalType": "uint256",
          "name": "_timeLimit",
          "type": "uint256"
        }
      ],
      "name": "setTimeLimit",
      "outputs": [],
      "stateMutability": "nonpayable",
      "type": "function"
    },
    {
      "inputs": [],
      "name": "symbol",
      "outputs": [
        {
          "internalType": "string",
          "name": "",
          "type": "string"
        }
      ],
      "stateMutability": "view",
      "type": "function"
    },
    {
      "inputs": [],
      "name": "timeLimit",
      "outputs": [
        {
          "internalType": "uint256",
          "name": "",
          "type": "uint256"
        }
      ],
      "stateMutability": "view",
      "type": "function"
    },
    {
      "inputs": [],
      "name": "totalSupply",
      "outputs": [
        {
          "internalType": "uint256",
          "name": "",
          "type": "uint256"
        }
      ],
      "stateMutability": "view",
      "type": "function"
    },
    {
      "inputs": [
        {
          "internalType": "address",
          "name": "to",
          "type": "address"
        },
        {
          "internalType": "uint256",
          "name": "value",
          "type": "uint256"
        }
      ],
      "name": "transfer",
      "outputs": [
        {
          "internalType": "bool",
          "name": "",
          "type": "bool"
        }
      ],
      "stateMutability": "nonpayable",
      "type": "function"
    },
    {
      "inputs": [
        {
          "internalType": "address",
          "name": "from",
          "type": "address"
        },
        {
          "internalType": "address",
          "name": "to",
          "type": "address"
        },
        {
          "internalType": "uint256",
          "name": "value",
          "type": "uint256"
        }
      ],
      "name": "transferFrom",
      "outputs": [
        {
          "internalType": "bool",
          "name": "",
          "type": "bool"
        }
      ],
      "stateMutability": "nonpayable",
      "type": "function"
    },
    {
      "inputs": [
        {
          "internalType": "address",
          "name": "newOwner",
          "type": "address"
        }
      ],
      "name": "transferOwnership",
      "outputs": [],
      "stateMutability": "nonpayable",
      "type": "function"
    }
  ],
  "bytecode": "0x6080604052670de0b6b3a7640000600755603c60085534801561002157600080fd5b50336040518060400160405280600e81526020017f526174654c696d6974546f6b656e0000000000000000000000000000000000008152506040518060400160405280600381526020017f524c540000000000000000000000000000000000000000000000000000000000815250816003908161009e9190610715565b5080600490816100ae9190610715565b505050600073ffffffffffffffffffffffffffffffffffffffff168173ffffffffffffffffffffffffffffffffffffffff16036101235760006040517f1e4fbdf700000000000000000000000000000000000000000000000000000000815260040161011a9190610828565b60405180910390fd5b6101328161015260201b60201c565b5061014d3369d3c21bcecceda100000061021860201b60201c565b610907565b6000600560009054906101000a900473ffffffffffffffffffffffffffffffffffffffff16905081600560006101000a81548173ffffffffffffffffffffffffffffffffffffffff021916908373ffffffffffffffffffffffffffffffffffffffff1602179055508173ffffffffffffffffffffffffffffffffffffffff168173ffffffffffffffffffffffffffffffffffffffff167f8be0079c531659141344cd1fd0a4f28419497f9722a3daafe3b4186f6b6457e060405160405180910390a35050565b600073ffffffffffffffffffffffffffffffffffffffff168273ffffffffffffffffffffffffffffffffffffffff160361028a5760006040517fec442f050000000000000000000000000000000000000000000000000000000081526004016102819190610828565b60405180910390fd5b61029c600083836102a060201b60201c565b5050565b600073ffffffffffffffffffffffffffffffffffffffff168373ffffffffffffffffffffffffffffffffffffffff16036102f25780600260008282546102e69190610872565b925050819055506103c5565b60008060008573ffffffffffffffffffffffffffffffffffffffff1673ffffffffffffffffffffffffffffffffffffffff1681526020019081526020016000205490508181101561037e578381836040517fe450d38c000000000000000000000000000000000000000000000000000000008152600401610375939291906108b5565b60405180910390fd5b8181036000808673ffffffffffffffffffffffffffffffffffffffff1673ffffffffffffffffffffffffffffffffffffffff16815260200190815260200160002081905550505b600073ffffffffffffffffffffffffffffffffffffffff168273ffffffffffffffffffffffffffffffffffffffff160361040e578060026000828254039250508190555061045b565b806000808473ffffffffffffffffffffffffffffffffffffffff1673ffffffffffffffffffffffffffffffffffffffff168152602001908152602001600020600082825401925050819055505b8173ffffffffffffffffffffffffffffffffffffffff168373ffffffffffffffffffffffffffffffffffffffff167fddf252ad1be2c89b69c2b068fc378daa952ba7f163c4a11628f55a4df523b3ef836040516104b891906108ec565b60405180910390a3505050565b600081519050919050565b7f4e487b7100000000000000000000000000000000000000000000000000000000600052604160045260246000fd5b7f4e487b7100000000000000000000000000000000000000000000000000000000600052602260045260246000fd5b6000600282049050600182168061054657607f821691505b602082108103610559576105586104ff565b5b50919050565b60008190508160005260206000209050919050565b60006020601f8301049050919050565b600082821b905092915050565b6000600883026105c17fffffffffffffffffffffffffffffffffffffffffffffffffffffffffffffffff82610584565b6105cb8683610584565b95508019841693508086168417925050509392505050565b6000819050919050565b6000819050919050565b600061061261060d610608846105e3565b6105ed565b6105e3565b9050919050565b6000819050919050565b61062c836105f7565b61064061063882610619565b848454610591565b825550505050565b600090565b610655610648565b610660818484610623565b505050565b5b818110156106845761067960008261064d565b600181019050610666565b5050565b601f8211156106c95761069a8161055f565b6106a384610574565b810160208510156106b2578190505b6106c66106be85610574565b830182610665565b50505b505050565b600082821c905092915050565b60006106ec600019846008026106ce565b1980831691505092915050565b600061070583836106db565b9150826002028217905092915050565b61071e826104c5565b67ffffffffffffffff811115610737576107366104d0565b5b610741825461052e565b61074c828285610688565b600060209050601f83116001811461077f576000841561076d578287015190505b61077785826106f9565b8655506107df565b601f19841661078d8661055f565b60005b828110156107b557848901518255600182019150602085019450602081019050610790565b868310156107d257848901516107ce601f8916826106db565b8355505b6001600288020188555050505b505050505050565b600073ffffffffffffffffffffffffffffffffffffffff82169050919050565b6000610812826107e7565b9050919050565b61082281610807565b82525050565b600060208201905061083d6000830184610819565b92915050565b7f4e487b7100000000000000000000000000000000000000000000000000000000600052601160045260246000fd5b600061087d826105e3565b9150610888836105e3565b92508282019050808211156108a05761089f610843565b5b92915050565b6108af816105e3565b82525050565b60006060820190506108ca6000830186610819565b6108d760208301856108a6565b6108e460408301846108a6565b949350505050565b600060208201905061090160008301846108a6565b92915050565b6114d9806109166000396000f3fe608060405234801561001057600080fd5b50600436106101165760003560e01c80638da5cb5b116100a2578063c41578e911610071578063c41578e9146102e7578063dd62ed3e14610303578063e2889c8214610333578063eb2f48171461034f578063f2fde38b1461035957610116565b80638da5cb5b1461025d57806395d89b411461027b578063a9059cbb14610299578063c08d1fe5146102c957610116565b806323b872dd116100e957806323b872dd146101a5578063313ce567146101d5578063394f6181146101f357806370a0823114610223578063715018a61461025357610116565b806306fdde031461011b578063095ea7b3146101395780630badfa681461016957806318160ddd14610187575b600080fd5b610123610375565b6040516101309190611028565b60405180910390f35b610153600480360381019061014e91906110e3565b610407565b604051610160919061113e565b60405180910390f35b61017161042a565b60405161017e9190611168565b60405180910390f35b61018f610430565b60405161019c9190611168565b60405180910390f35b6101bf60048036038101906101ba9190611183565b61043a565b6040516101cc919061113e565b60405180910390f35b6101dd610469565b6040516101ea91906111f2565b60405180910390f35b61020d6004803603810190610208919061120d565b610472565b60405161021a9190611168565b60405180910390f35b61023d6004803603810190610238919061120d565b61048a565b60405161024a9190611168565b60405180910390f35b61025b6104d2565b005b6102656104e6565b6040516102729190611249565b60405180910390f35b610283610510565b6040516102909190611028565b60405180910390f35b6102b360048036038101906102ae91906110e3565b6105a2565b6040516102c0919061113e565b60405180910390f35b6102d16105c5565b6040516102de9190611168565b60405180910390f35b61030160048036038101906102fc9190611264565b6105cb565b005b61031d60048036038101906103189190611291565b6105dd565b60405161032a9190611168565b60405180910390f35b61034d60048036038101906103489190611264565b610664565b005b610357610676565b005b610373600480360381019061036e919061120d565b6107a4565b005b60606003805461038490611300565b80601f01602080910402602001604051908101604052809291908181526020018280546103b090611300565b80156103fd5780601f106103d2576101008083540402835291602001916103fd565b820191906000526020600020905b8154815290600101906020018083116103e057829003601f168201915b5050505050905090565b60008061041261082a565b905061041f818585610832565b600191505092915050565b60075481565b6000600254905090565b60008061044561082a565b9050610452858285610844565b61045d8585856108d9565b60019150509392505050565b60006012905090565b60066020528060005260406000206000915090505481565b60008060008373ffffffffffffffffffffffffffffffffffffffff1673ffffffffffffffffffffffffffffffffffffffff168152602001908152602001600020549050919050565b6104da6109cd565b6104e46000610a54565b565b6000600560009054906101000a900473ffffffffffffffffffffffffffffffffffffffff16905090565b60606004805461051f90611300565b80601f016020809104026020016040519081016040528092919081815260200182805461054b90611300565b80156105985780601f1061056d57610100808354040283529160200191610598565b820191906000526020600020905b81548152906001019060200180831161057b57829003601f168201915b5050505050905090565b6000806105ad61082a565b90506105ba8185856108d9565b600191505092915050565b60085481565b6105d36109cd565b8060078190555050565b6000600160008473ffffffffffffffffffffffffffffffffffffffff1673ffffffffffffffffffffffffffffffffffffffff16815260200190815260200160002060008373ffffffffffffffffffffffffffffffffffffffff1673ffffffffffffffffffffffffffffffffffffffff16815260200190815260200160002054905092915050565b61066c6109cd565b8060088190555050565b6007546106823361048a565b10156106c3576040517f08c379a00000000000000000000000000000000000000000000000000000000081526004016106ba9061137d565b60405180910390fd5b600854600660003373ffffffffffffffffffffffffffffffffffffffff1673ffffffffffffffffffffffffffffffffffffffff1681526020019081526020016000205461071091906113cc565b421015610752576040517f08c379a00000000000000000000000000000000000000000000000000000000081526004016107499061144c565b60405180910390fd5b61075e33600754610b1a565b42600660003373ffffffffffffffffffffffffffffffffffffffff1673ffffffffffffffffffffffffffffffffffffffff16815260200190815260200160002081905550565b6107ac6109cd565b600073ffffffffffffffffffffffffffffffffffffffff168173ffffffffffffffffffffffffffffffffffffffff160361081e5760006040517f1e4fbdf70000000000000000000000000000000000000000000000000000000081526004016108159190611249565b60405180910390fd5b61082781610a54565b50565b600033905090565b61083f8383836001610b9c565b505050565b600061085084846105dd565b90507fffffffffffffffffffffffffffffffffffffffffffffffffffffffffffffffff8110156108d357818110156108c3578281836040517ffb8f41b20000000000000000000000000000000000000000000000000000000081526004016108ba9392919061146c565b60405180910390fd5b6108d284848484036000610b9c565b5b50505050565b600073ffffffffffffffffffffffffffffffffffffffff168373ffffffffffffffffffffffffffffffffffffffff160361094b5760006040517f96c6fd1e0000000000000000000000000000000000000000000000000000000081526004016109429190611249565b60405180910390fd5b600073ffffffffffffffffffffffffffffffffffffffff168273ffffffffffffffffffffffffffffffffffffffff16036109bd5760006040517fec442f050000000000000000000000000000000000000000000000000000000081526004016109b49190611249565b60405180910390fd5b6109c8838383610d73565b505050565b6109d561082a565b73ffffffffffffffffffffffffffffffffffffffff166109f36104e6565b73ffffffffffffffffffffffffffffffffffffffff1614610a5257610a1661082a565b6040517f118cdaa7000000000000000000000000000000000000000000000000000000008152600401610a499190611249565b60405180910390fd5b565b6000600560009054906101000a900473ffffffffffffffffffffffffffffffffffffffff16905081600560006101000a81548173ffffffffffffffffffffffffffffffffffffffff021916908373ffffffffffffffffffffffffffffffffffffffff1602179055508173ffffffffffffffffffffffffffffffffffffffff168173ffffffffffffffffffffffffffffffffffffffff167f8be0079c531659141344cd1fd0a4f28419497f9722a3daafe3b4186f6b6457e060405160405180910390a35050565b600073ffffffffffffffffffffffffffffffffffffffff168273ffffffffffffffffffffffffffffffffffffffff1603610b8c5760006040517f96c6fd1e000000000000000000000000000000000000000000000000000000008152600401610b839190611249565b60405180910390fd5b610b9882600083610d73565b5050565b600073ffffffffffffffffffffffffffffffffffffffff168473ffffffffffffffffffffffffffffffffffffffff1603610c0e5760006040517fe602df05000000000000000000000000000000000000000000000000000000008152600401610c059190611249565b60405180910390fd5b600073ffffffffffffffffffffffffffffffffffffffff168373ffffffffffffffffffffffffffffffffffffffff1603610c805760006040517f94280d62000000000000000000000000000000000000000000000000000000008152600401610c779190611249565b60405180910390fd5b81600160008673ffffffffffffffffffffffffffffffffffffffff1673ffffffffffffffffffffffffffffffffffffffff16815260200190815260200160002060008573ffffffffffffffffffffffffffffffffffffffff1673ffffffffffffffffffffffffffffffffffffffff168152602001908152602001600020819055508015610d6d578273ffffffffffffffffffffffffffffffffffffffff168473ffffffffffffffffffffffffffffffffffffffff167f8c5be1e5ebec7d5bd14f71427d1e84f3dd0314c0f7b2291e5b200ac8c7c3b92584604051610d649190611168565b60405180910390a35b50505050565b600073ffffffffffffffffffffffffffffffffffffffff168373ffffffffffffffffffffffffffffffffffffffff1603610dc5578060026000828254610db991906113cc565b92505081905550610e98565b60008060008573ffffffffffffffffffffffffffffffffffffffff1673ffffffffffffffffffffffffffffffffffffffff16815260200190815260200160002054905081811015610e51578381836040517fe450d38c000000000000000000000000000000000000000000000000000000008152600401610e489392919061146c565b60405180910390fd5b8181036000808673ffffffffffffffffffffffffffffffffffffffff1673ffffffffffffffffffffffffffffffffffffffff16815260200190815260200160002081905550505b600073ffffffffffffffffffffffffffffffffffffffff168273ffffffffffffffffffffffffffffffffffffffff1603610ee15780600260008282540392505081905550610f2e565b806000808473ffffffffffffffffffffffffffffffffffffffff1673ffffffffffffffffffffffffffffffffffffffff168152602001908152602001600020600082825401925050819055505b8173ffffffffffffffffffffffffffffffffffffffff168373ffffffffffffffffffffffffffffffffffffffff167fddf252ad1be2c89b69c2b068fc378daa952ba7f163c4a11628f55a4df523b3ef83604051610f8b9190611168565b60405180910390a3505050565b600081519050919050565b600082825260208201905092915050565b60005b83811015610fd2578082015181840152602081019050610fb7565b60008484015250505050565b6000601f19601f8301169050919050565b6000610ffa82610f98565b6110048185610fa3565b9350611014818560208601610fb4565b61101d81610fde565b840191505092915050565b600060208201905081810360008301526110428184610fef565b905092915050565b600080fd5b600073ffffffffffffffffffffffffffffffffffffffff82169050919050565b600061107a8261104f565b9050919050565b61108a8161106f565b811461109557600080fd5b50565b6000813590506110a781611081565b92915050565b6000819050919050565b6110c0816110ad565b81146110cb57600080fd5b50565b6000813590506110dd816110b7565b92915050565b600080604083850312156110fa576110f961104a565b5b600061110885828601611098565b9250506020611119858286016110ce565b9150509250929050565b60008115159050919050565b61113881611123565b82525050565b6000602082019050611153600083018461112f565b92915050565b611162816110ad565b82525050565b600060208201905061117d6000830184611159565b92915050565b60008060006060848603121561119c5761119b61104a565b5b60006111aa86828701611098565b93505060206111bb86828701611098565b92505060406111cc868287016110ce565b9150509250925092565b600060ff82169050919050565b6111ec816111d6565b82525050565b600060208201905061120760008301846111e3565b92915050565b6000602082840312156112235761122261104a565b5b600061123184828501611098565b91505092915050565b6112438161106f565b82525050565b600060208201905061125e600083018461123a565b92915050565b60006020828403121561127a5761127961104a565b5b6000611288848285016110ce565b91505092915050565b600080604083850312156112a8576112a761104a565b5b60006112b685828601611098565b92505060206112c785828601611098565b9150509250929050565b7f4e487b7100000000000000000000000000000000000000000000000000000000600052602260045260246000fd5b6000600282049050600182168061131857607f821691505b60208210810361132b5761132a6112d1565b5b50919050565b7f4e6f7420656e6f75676820746f6b656e73000000000000000000000000000000600082015250565b6000611367601183610fa3565b915061137282611331565b602082019050919050565b600060208201905081810360008301526113968161135a565b9050919050565b7f4e487b7100000000000000000000000000000000000000000000000000000000600052601160045260246000fd5b60006113d7826110ad565b91506113e2836110ad565b92508282019050808211156113fa576113f961139d565b5b92915050565b7f436f6f6c646f776e206163746976650000000000000000000000000000000000600082015250565b6000611436600f83610fa3565b915061144182611400565b602082019050919050565b6000602082019050818103600083015261146581611429565b9050919050565b6000606082019050611481600083018661123a565b61148e6020830185611159565b61149b6040830184611159565b94935050505056fea264697066735822122055c26b4bffd08408479523099bb565946b1b4ca34612990911153e7cebb72bfd64736f6c634300081c0033",
  "linkReferences": {},
  "deployedLinkReferences": {}
}